{
  "_format": "hh-sol-artifact-1",
  "contractName": "Chai",
  "sourceName": "contracts/Chai.sol",
  "abi": [
    {
      "inputs": [],
      "stateMutability": "payable",
      "type": "constructor"
    },
    {
      "anonymous": false,
      "inputs": [
        {
          "indexed": false,
          "internalType": "string",
          "name": "name",
          "type": "string"
        },
        {
          "indexed": false,
          "internalType": "string",
          "name": "message",
          "type": "string"
        },
        {
          "indexed": false,
          "internalType": "uint256",
          "name": "timestamp",
          "type": "uint256"
        },
        {
          "indexed": true,
          "internalType": "address",
          "name": "from",
          "type": "address"
        }
      ],
      "name": "NewMemo",
      "type": "event"
    },
    {
      "anonymous": false,
      "inputs": [
        {
          "indexed": false,
          "internalType": "string",
          "name": "message",
          "type": "string"
        }
      ],
      "name": "WithdrawnTips",
      "type": "event"
    },
    {
      "inputs": [
        {
          "internalType": "string",
          "name": "_name",
          "type": "string"
        },
        {
          "internalType": "string",
          "name": "_message",
          "type": "string"
        }
      ],
      "name": "buyChai",
      "outputs": [],
      "stateMutability": "payable",
      "type": "function"
    },
    {
      "inputs": [],
      "name": "getContractBal",
      "outputs": [
        {
          "internalType": "uint256",
          "name": "",
          "type": "uint256"
        }
      ],
      "stateMutability": "view",
      "type": "function"
    },
    {
      "inputs": [],
      "name": "getMemos",
      "outputs": [
        {
          "components": [
            {
              "internalType": "string",
              "name": "name",
              "type": "string"
            },
            {
              "internalType": "string",
              "name": "message",
              "type": "string"
            },
            {
              "internalType": "uint256",
              "name": "timestamp",
              "type": "uint256"
            },
            {
              "internalType": "address",
              "name": "from",
              "type": "address"
            }
          ],
          "internalType": "struct Chai.Memo[]",
          "name": "",
          "type": "tuple[]"
        }
      ],
      "stateMutability": "view",
      "type": "function"
    },
    {
      "inputs": [],
      "name": "withdrawnTips",
      "outputs": [],
      "stateMutability": "nonpayable",
      "type": "function"
    },
    {
      "stateMutability": "payable",
      "type": "receive"
    }
  ],
  "bytecode": "0x608060405233600160006101000a81548173ffffffffffffffffffffffffffffffffffffffff021916908373ffffffffffffffffffffffffffffffffffffffff160217905550610bd5806100546000396000f3fe6080604052600436106100435760003560e01c80633c2c0d401461004f5780635d9fa6fc146100665780636a13d85914610091578063865c5172146100ad5761004a565b3661004a57005b600080fd5b34801561005b57600080fd5b506100646100d8565b005b34801561007257600080fd5b5061007b61016f565b604051610088919061059e565b60405180910390f35b6100ab60048036038101906100a69190610713565b610177565b005b3480156100b957600080fd5b506100c26102ff565b6040516100cf919061098f565b60405180910390f35b600160009054906101000a900473ffffffffffffffffffffffffffffffffffffffff1673ffffffffffffffffffffffffffffffffffffffff166108fc479081150290604051600060405180830381858888f1935050505061013857600080fd5b7f2e10d34dc616caa2f39a551f51e5841eb5a0c8a2f3b594ccac62cb3ca691b90260405161016590610a34565b60405180910390a1565b600047905090565b600034116101ba576040517f08c379a00000000000000000000000000000000000000000000000000000000081526004016101b190610aa0565b60405180910390fd5b600060405180608001604052808481526020018381526020014281526020013373ffffffffffffffffffffffffffffffffffffffff16815250908060018154018082558091505060019003906000526020600020906004020160009091909190915060008201518160000190805190602001906102389291906104e2565b5060208201518160010190805190602001906102559291906104e2565b506040820151816002015560608201518160030160006101000a81548173ffffffffffffffffffffffffffffffffffffffff021916908373ffffffffffffffffffffffffffffffffffffffff16021790555050503373ffffffffffffffffffffffffffffffffffffffff167f023e5f81cefca171d6a759367a345daff60147419fddaf081f29797bcbf931448383426040516102f393929190610af9565b60405180910390a25050565b60606000805480602002602001604051908101604052809291908181526020016000905b828210156104d9578382906000526020600020906004020160405180608001604052908160008201805461035690610b6d565b80601f016020809104026020016040519081016040528092919081815260200182805461038290610b6d565b80156103cf5780601f106103a4576101008083540402835291602001916103cf565b820191906000526020600020905b8154815290600101906020018083116103b257829003601f168201915b505050505081526020016001820180546103e890610b6d565b80601f016020809104026020016040519081016040528092919081815260200182805461041490610b6d565b80156104615780601f1061043657610100808354040283529160200191610461565b820191906000526020600020905b81548152906001019060200180831161044457829003601f168201915b50505050508152602001600282015481526020016003820160009054906101000a900473ffffffffffffffffffffffffffffffffffffffff1673ffffffffffffffffffffffffffffffffffffffff1673ffffffffffffffffffffffffffffffffffffffff168152505081526020019060010190610323565b50505050905090565b8280546104ee90610b6d565b90600052602060002090601f0160209004810192826105105760008555610557565b82601f1061052957805160ff1916838001178555610557565b82800160010185558215610557579182015b8281111561055657825182559160200191906001019061053b565b5b5090506105649190610568565b5090565b5b80821115610581576000816000905550600101610569565b5090565b6000819050919050565b61059881610585565b82525050565b60006020820190506105b3600083018461058f565b92915050565b6000604051905090565b600080fd5b600080fd5b600080fd5b600080fd5b6000601f19601f8301169050919050565b7f4e487b7100000000000000000000000000000000000000000000000000000000600052604160045260246000fd5b610620826105d7565b810181811067ffffffffffffffff8211171561063f5761063e6105e8565b5b80604052505050565b60006106526105b9565b905061065e8282610617565b919050565b600067ffffffffffffffff82111561067e5761067d6105e8565b5b610687826105d7565b9050602081019050919050565b82818337600083830152505050565b60006106b66106b184610663565b610648565b9050828152602081018484840111156106d2576106d16105d2565b5b6106dd848285610694565b509392505050565b600082601f8301126106fa576106f96105cd565b5b813561070a8482602086016106a3565b91505092915050565b6000806040838503121561072a576107296105c3565b5b600083013567ffffffffffffffff811115610748576107476105c8565b5b610754858286016106e5565b925050602083013567ffffffffffffffff811115610775576107746105c8565b5b610781858286016106e5565b9150509250929050565b600081519050919050565b600082825260208201905092915050565b6000819050602082019050919050565b600081519050919050565b600082825260208201905092915050565b60005b838110156107f15780820151818401526020810190506107d6565b83811115610800576000848401525b50505050565b6000610811826107b7565b61081b81856107c2565b935061082b8185602086016107d3565b610834816105d7565b840191505092915050565b61084881610585565b82525050565b600073ffffffffffffffffffffffffffffffffffffffff82169050919050565b60006108798261084e565b9050919050565b6108898161086e565b82525050565b600060808301600083015184820360008601526108ac8282610806565b915050602083015184820360208601526108c68282610806565b91505060408301516108db604086018261083f565b5060608301516108ee6060860182610880565b508091505092915050565b6000610905838361088f565b905092915050565b6000602082019050919050565b60006109258261078b565b61092f8185610796565b935083602082028501610941856107a7565b8060005b8581101561097d578484038952815161095e85826108f9565b94506109698361090d565b925060208a01995050600181019050610945565b50829750879550505050505092915050565b600060208201905081810360008301526109a9818461091a565b905092915050565b600082825260208201905092915050565b7f42616c616e636520686173206265656e2077697468647261776e20746f206f7760008201527f6e657220616464726573732e0000000000000000000000000000000000000000602082015250565b6000610a1e602c836109b1565b9150610a29826109c2565b604082019050919050565b60006020820190508181036000830152610a4d81610a11565b9050919050565b7f43616e27742062757920636f6666656520776974682030204554480000000000600082015250565b6000610a8a601b836109b1565b9150610a9582610a54565b602082019050919050565b60006020820190508181036000830152610ab981610a7d565b9050919050565b6000610acb826107b7565b610ad581856109b1565b9350610ae58185602086016107d3565b610aee816105d7565b840191505092915050565b60006060820190508181036000830152610b138186610ac0565b90508181036020830152610b278185610ac0565b9050610b36604083018461058f565b949350505050565b7f4e487b7100000000000000000000000000000000000000000000000000000000600052602260045260246000fd5b60006002820490506001821680610b8557607f821691505b60208210811415610b9957610b98610b3e565b5b5091905056fea26469706673582212203d7462c3b8af690087dadefe7991fe17a9b2b94f6b353c5d0feba0263725babf64736f6c634300080a0033",
  "linkReferences": {},
  "deployedLinkReferences": {}
}